{"abi":[{"type":"function","name":"createProxy","inputs":[{"name":"implementation","type":"address","internalType":"address"},{"name":"dapplinkAddress","type":"address","internalType":"address"}],"outputs":[{"name":"","type":"address","internalType":"address"}],"stateMutability":"nonpayable"},{"type":"event","name":"ProxyCreated","inputs":[{"name":"mintProxyAddress","type":"address","indexed":false,"internalType":"address"}],"anonymous":false},{"type":"error","name":"FailedDeployment","inputs":[]},{"type":"error","name":"InsufficientBalance","inputs":[{"name":"balance","type":"uint256","internalType":"uint256"},{"name":"needed","type":"uint256","internalType":"uint256"}]}],"bytecode":{"object":"0x60808060405234601557610197908161001a8239f35b5f80fdfe60806040526004361015610011575f80fd5b5f3560e01c6325b5672714610024575f80fd5b3461014e57604036600319011261014e576004356001600160a01b038116810361014e576024356001600160a01b038116919082900361014e5780763d602d80600a3d3981f3363d3d373d3d3d363d7300000062ffffff6e5af43d82803e903d91602b57fd5bf39360881c16175f5260781b1760205260018060a01b03603760095ff016801561015257803b1561014e576040519163485cc95560e01b835233600484015260248301525f8260448183855af1801561014357610115575b6020907efffc2da0b561cae30d9826d37709e9421c4725faebc226cbbb7ef5fc5e734982604051838152a1604051908152f35b67ffffffffffffffff821161012f576020916040526100e2565b634e487b7160e01b5f52604160045260245ffd5b6040513d5f823e3d90fd5b5f80fd5b63b06ebf3d60e01b5f5260045ffdfea26469706673582212206d1451d18187981eab98ea1589818aa6b83aa2ca8d91c59760bc60cba3ca1bdf64736f6c634300081c0033","linkReferences":{}},"methodIdentifiers":{"createProxy(address,address)":"25b56727"},"storageLayout":{"storage":[],"types":{}},"id":31}